:020000040800F2
:10000000704D00206D030008DD030008DD030008CB
:10001000DD030008DD030008DD0300080000000028
:100020000000000000000000000000005D1000085B
:10003000DD0300080000000071110008AD11000888
:10004000DD030008DD030008DD030008DD03000810
:10005000DD030008DD030008DD030008DD03000800
:10006000DD030008DD030008DD030008DD030008F0
:10007000DD030008DD030008DD030008DD030008E0
:10008000DD030008DD030008DD030008DD030008D0
:10009000DD030008DD030008DD030008DD030008C0
:1000A000DD030008DD030008DD030008DD030008B0
:1000B000DD030008DD030008DD030008DD030008A0
:1000C000DD030008DD030008DD030008DD03000890
:1000D000DD030008DD030008DD030008DD03000880
:1000E000DD030008DD030008DD0300080000000058
:1000F0000000000000000000000000000000000000
:1001000000000000000000005FF808F180B500AFBB
:100110004FF48053C4F202034FF48052C4F202023F
:10012000126842F001021A604FF48052C4F20202D7
:100130004FF48053C4F2020359684FF00003CFF626
:10014000FF030B4053604FF48053C4F202034FF49B
:100150008052C4F20202126822F0847222F48032C9
:100160001A604FF48053C4F202034FF48052C4F279
:100170000202126822F480221A604FF48053C4F203
:1001800002034FF48052C4F20202526822F4FE02CB
:100190005A604FF48053C4F202034FF41F029A6076
:1001A00000F008F84FF46D43CEF200034FF0006208
:1001B0009A6080BD80B500AF00F002F880BD00BF3E
:1001C00080B483B000AF4FF000037B604FF00003BA
:1001D0003B604FF48053C4F202034FF48052C4F2E8
:1001E0000202126842F480321A604FF48053C4F263
:1001F00002031B6803F400333B607B6803F10103D7
:100200007B603B68002B03D17B68B3F5A06FECD11A
:100210004FF48053C4F202031B6803F40033002B35
:1002200003D04FF001033B6002E04FF000033B605E
:100230003B68012B40F094804FF40053C4F202035A
:100240004FF40052C4F20202126842F010021A6027
:100250004FF40053C4F202034FF40052C4F20202FE
:10026000126822F003021A604FF40053C4F2020332
:100270004FF40052C4F20202126842F002021A6005
:100280004FF48053C4F202034FF48052C4F20202CE
:1002900052685A604FF48053C4F202034FF4805204
:1002A000C4F2020252685A604FF48053C4F202034F
:1002B0004FF48052C4F20202526842F480625A60E3
:1002C0004FF48053C4F202034FF48052C4F202028E
:1002D000526822F47C125A604FF48053C4F2020335
:1002E0004FF48052C4F20202526842F4E8125A609B
:1002F0004FF48053C4F202034FF48052C4F202025E
:10030000126842F080721A6000BF4FF48053C4F24A
:1003100002031B6803F00073002BF6D04FF48053E8
:10032000C4F202034FF48052C4F20202526822F077
:1003300003025A604FF48053C4F202034FF4805218
:10034000C4F20202526842F002025A6000BF4FF447
:100350008053C4F202035B6803F00C03082BF6D150
:1003600007F10C07BD4680BC704700BF80B582B066
:1003700000AF41F23463C0F600037B6040F200033B
:10038000C2F200033B600BE07B681A683B681A60AE
:100390003B6803F104033B607B6803F104037B606B
:1003A0003A6840F25403C2F200039A42ECD309487F
:1003B00009494FF000028842B8BF40F8042BFFF60D
:1003C000FAAFFFF7A3FE00F005F907F10807BD46F5
:1003D00080BD0000540000206C49002080B400AFB4
:1003E000FEE700BF80B489B000AF786039604FF09D
:1003F0000003FB614FF000033B614FF00003BB6162
:100400004FF00003FB604FF000037B614FF00003EF
:10041000BB603B68DB7803F00F03FB613B68DB7874
:1004200003F01003002B04D03B689B78FA69134358
:10043000FB613B681B88DBB2002B4ED07B681B68DE
:100440007B614FF00003BB6141E0BB694FF00102EB
:1004500002FA03F3FB603B681B881A46FB681340F3
:100460003B613A69FB689A422DD1BB694FEA83032D
:10047000FB60FB684FF00F0202FA03F3BB60BB683E
:100480006FEA03037A6913407B61FB68FA6902FA39
:1004900003F37A6913437B613B68DB78282B07D130
:1004A000BB694FF0010202FA03F27B685A610AE06D
:1004B0003B68DB78482B06D1BB694FF0010202FA9A
:1004C00003F27B681A61BB6903F10103BB61BB697D
:1004D000072BBAD97B687A691A603B681B88FF2BA7
:1004E00053D97B685B687B614FF00003BB6146E0DA
:1004F000BB6903F108034FF0010202FA03F3FB604A
:100500003B681B881A46FB6813403B613A69FB68ED
:100510009A4230D1BB694FEA8303FB60FB684FF01E
:100520000F0202FA03F3BB60BB686FEA03037A6948
:1005300013407B61FB68FA6902FA03F37A6913439B
:100540007B613B68DB78282B08D1BB6903F108038A
:100550004FF0010202FA03F27B685A613B68DB78D4
:10056000482B08D1BB6903F108034FF0010202FADE
:1005700003F27B681A61BB6903F10103BB61BB69CC
:10058000072BB5D97B687A695A6007F12407BD4605
:1005900080BC704780B584B000AF78607B68FB7228
:1005A000FB7A184600F074FE4FF00003FB6003E096
:1005B000FB6803F10103FB60FB7A03F101034FF4D5
:1005C000801292FBF3F2FB689A42F1DC00F08AFDA4
:1005D000E6E700BF80B584B004AFFFF797FD4FF0AA
:1005E000000000F00BFE4FF0010000F007FE4FF09E
:1005F000020000F003FE4FF0030000F0FFFD4FF09B
:10060000000000F02BFE4FF0010000F027FE4FF03D
:10061000020000F023FE4FF0030000F01FFE4FF039
:10062000030300934FF0000301934FF00003029384
:100630004FF00003039340F29550C0F6000041F2E2
:100640006051C0F600014FF480724FF0000300F0DB
:100650007BF84FF0030300934FF0000301934FF03A
:10066000000302934FF00003039340F29550C0F64D
:10067000000041F26051C0F600014FF480724FF06B
:10068000010300F061F84FF0030300934FF0000303
:1006900001934FF0000302934FF00003039340F2E5
:1006A0009550C0F6000041F26051C0F600014FF4D1
:1006B00080724FF0020300F047F84FF003030093FD
:1006C0004FF0000301934FF0000302934FF000033B
:1006D000039340F29550C0F6000041F26051C0F61D
:1006E00000014FF480724FF0030300F02DF800F08A
:1006F00007F9FEE780B483B000AF78600B46FB706B
:10070000FB78002B0CD04FF48053C4F202034FF45B
:100710008052C4F2020291697A680A439A610DE03C
:100720004FF48053C4F202034FF48052C4F2020229
:1007300091697A686FEA02020A409A6107F10C0730
:10074000BD4680BC704700BF80B58AB002AFF8607C
:10075000B9603B601346FB80FB881846396B00F09C
:1007600093FBB861BB69002B00F0AB80BB691A6BCF
:10077000FB8803F1FF334FEA8303D3187B617B6966
:1007800023F007037B61FB880093B869B968BA6AF4
:100790007B6B00F0F3FA7869F9683A6800F02EFC98
:1007A0000246BB691A60FB6A002B02D0FB6ABA6979
:1007B0001A6000F0A3FC40F20013C2F200031B68B1
:1007C00003F1010240F20013C2F200031A6040F28A
:1007D0005403C2F200031B68002B0FD140F25403F4
:1007E000C2F20003BA691A6040F20013C2F20003B9
:1007F0001B68012B18D100F0FBFA15E040F2101332
:10080000C2F200031B68002B0ED140F25403C2F267
:1008100000031B68DA6ABB6A9A4205D840F25403A7
:10082000C2F20003BA691A60BB69DA6A40F20813BF
:10083000C2F200031B689A4206D9BB69DA6A40F229
:100840000813C2F200031A6040F22413C2F200033C
:100850001B6803F1010240F22413C2F200031A6084
:1008600040F22413C2F200031A68BB695A64BB69E0
:10087000DA6A40F20C13C2F200031B689A4206D9EE
:10088000BB69DA6A40F20C13C2F200031A60BB695A
:10089000DA6A13464FEA83039B184FEA830340F258
:1008A0005802C2F200029A18BB6903F10403104611
:1008B000194600F04FFB4FF00103FB6100F030FCE4
:1008C00002E04FF0FF33FB61FB69012B11D140F2D5
:1008D0001013C2F200031B68002B0AD040F254032D
:1008E000C2F200031B68DA6ABB6A9A4201D200F0C6
:1008F000F9FBFB69184607F12007BD4680BD00BF24
:1009000080B586B004AF4FF0000300934FF00003B2
:1009100001934FF0000302934FF00003039340F65E
:100920005950C0F6000041F26851C0F600014FF482
:1009300080724FF00003FFF707FF78607B68012BA0
:1009400011D100F007FC40F21013C2F200034FF087
:1009500001021A6040F20413C2F200034FF00002D9
:100960001A6000F095FB07F10807BD4680BD00BF87
:1009700080B400AF40F21413C2F200031B6803F10D
:10098000010240F21413C2F200031A60BD4680BC9B
:10099000704700BF90B583B000AF4FF000037B609D
:1009A00000F0ACFB40F21413C2F200031B6803F129
:1009B000FF3240F21413C2F200031A6040F2141323
:1009C000C2F200031B68002B40F0848040F2001349
:1009D000C2F200031B68002B7CD04FF000033B6089
:1009E0003BE040F2EC03C2F20003DB68DC6804F198
:1009F0001803184600F0D6FA04F10403184600F074
:100A0000D1FAE26A40F20C13C2F200031B689A4268
:100A100005D9E26A40F20C13C2F200031A60E26ADE
:100A200013464FEA83039B184FEA830340F25802B0
:100A3000C2F200029A1804F104031046194600F0AD
:100A400089FAE26A40F25403C2F200031B68DB6ACF
:100A50009A4202D34FF001033B6040F2EC03C2F232
:100A600000031B68002BBCD140F21813C2F2000334
:100A70001B68002B18D00DE000F034F840F218137A
:100A8000C2F200031B6803F1FF3240F21813C2F2F6
:100A900000031A6040F21813C2F200031B68002B17
:100AA000EAD14FF001033B603B68012B06D040F2D6
:100AB0001C13C2F200031B68012B0BD14FF0010382
:100AC0007B6040F21C13C2F200034FF000021A6078
:100AD00000F008FB00F024FB7B68184607F10C07C8
:100AE000BD4690BD80B584B000AF40F21413C2F291
:100AF00000031B68002B40F0BF8040F20413C2F2D9
:100B000000031B6803F1010240F20413C2F2000368
:100B10001A6040F20413C2F200031B68002B40D19C
:100B200040F2E403C2F200031B68FB6040F2E803FA
:100B3000C2F200031A6840F2E403C2F200031A6032
:100B400040F2E803C2F20003FA681A6040F2201390
:100B5000C2F200031B6803F1010240F22013C2F24B
:100B600000031A6040F2E403C2F200031B681B6832
:100B7000002B07D140F20003C2F200034FF0FF3216
:100B80001A600EE040F2E403C2F200031B68DB6867
:100B9000DB68BB60BB685A6840F20003C2F2000326
:100BA0001A6040F20413C2F200031A6840F2000314
:100BB000C2F200031B689A426AD340F2E403C2F215
:100BC00000031B681B68002B07D140F20003C2F230
:100BD00000034FF0FF321A605AE040F2E403C2F221
:100BE00000031B68DB68DB68BB60BB685B687B601D
:100BF00040F20413C2F200031A687B689A4206D2DC
:100C000040F20003C2F200037A681A6040E0BB6859
:100C100003F10403184600F0C5F9BB689B6A002B7A
:100C200005D0BB6803F11803184600F0BBF9BB6898
:100C3000DA6A40F20C13C2F200031B689A4206D92A
:100C4000BB68DA6A40F20C13C2F200031A60BB6898
:100C5000DA6A13464FEA83039B184FEA830340F294
:100C60005802C2F200029A18BB6803F1040310464E
:100C7000194600F06FF9A0E740F21813C2F2000322
:100C80001B6803F1010240F21813C2F200031A605C
:100C900007F11007BD4680BD80B483B000AF40F2BD
:100CA0001413C2F200031B68002B13D040F21C1374
:100CB000C2F200034FF001021A6048E040F20C1348
:100CC000C2F200031B6803F1FF3240F20C13C2F2C0
:100CD00000031A6040F20C13C2F20003196840F2DC
:100CE0005802C2F200020B464FEA83035B184FEA38
:100CF0008303D3181B68002BE0D040F20C13C2F220
:100D000000031A6813464FEA83039B184FEA8303D4
:100D100040F25802C2F200029B187B607B685B685D
:100D20005A687B685A607B685A687B6803F10803DD
:100D30009A4204D17B685B685A687B685A607B681A
:100D40005B68DA6840F25403C2F200031A6007F1EC
:100D50000C07BD4680BC704780B582B000AF78609C
:100D600000E000BF00F08AF840F25803C2F200032E
:100D70001B68012BF5D900F0B5F9F2E780B584B016
:100D800000AFF860B9607A603B60FB6803F1340340
:100D90001846B9684FF0100200F0CCFBFB684FF02A
:100DA000000283F843207B68042B02D94FF0040330
:100DB0007B60FB687A68DA62FB6803F1040318461B
:100DC00000F0BAF8FB6803F11803184600F0B4F815
:100DD000FB68FA681A617B68C3F10502FB689A61D7
:100DE000FB68FA685A6207F11007BD4680BD00BF74
:100DF00080B582B000AF4FF000037B6012E07A68EC
:100E000013464FEA83039B184FEA830340F25802CC
:100E1000C2F200029B18184600F06EF87B6803F1DE
:100E200001037B607B68042BE9D940F2BC00C2F26D
:100E3000000000F061F840F2D000C2F2000000F0C3
:100E40005BF840F2EC00C2F2000000F055F840F20E
:100E5000E403C2F2000340F2BC02C2F200021A60D4
:100E600040F2E803C2F2000340F2D002C2F20002F4
:100E70001A6007F10807BD4680BD00BF80B400AF0F
:100E8000BD4680BC704700BF80B584B000AF03464C
:100E90003960FB804FF04C0000F01CFAF860FB68F2
:100EA000002B23D03B68002B07D1FB884FEA83033C
:100EB000184600F00FFA034600E03B68FA68136337
:100EC000FB681B6B002B06D1F86800F0B1FA4FF0FD
:100ED0000003FB600AE0FB681A6BFB884FEA8303A0
:100EE00010464FF0A5011A4600F01CFBFB6818469F
:100EF00007F11007BD4680BD80B483B000AF7860B5
:100F00007B6803F108027B685A607B684FF0FF3210
:100F10009A607B6803F108027B68DA607B6803F102
:100F200008027B681A617B684FF000021A6007F1C3
:100F30000C07BD4680BC704780B483B000AF7860BA
:100F40007B684FF000021A6107F10C07BD4680BCB8
:100F5000704700BF80B485B000AF786039607B68AF
:100F60005B68FB60FB685A683B685A607B685A683C
:100F70003B689A60FB685B683A689A60FB683A680D
:100F80005A607B683A685A603B687A681A617B6885
:100F90001B6803F101027B681A6007F11407BD4664
:100FA00080BC704780B485B000AF78607B685B68B8
:100FB0007A6892689A607B689B687A6852685A601F
:100FC0007B681B69FB60FB685A687B689A4203D1A7
:100FD0007B689A68FB685A607B684FF000021A6170
:100FE000FB681B6803F1FF32FB681A60FB681B6833
:100FF000184607F11407BD4680BC704780B485B021
:1010000000AFF860B9607A60FB68A3F10403FB608D
:10101000FB684FF080721A60FB68A3F10403FB6069
:10102000BA68FB681A60FB68A3F10403FB60FB6805
:101030004FF000021A60FB68A3F11403FB607A68AA
:10104000FB681A60FB68A3F12003FB60FB6818468D
:1010500007F11407BD4680BC704700BF064B1968F6
:101060000868B0E8F00F80F309884FF0000080F3C3
:1010700011884EF00D0E70475400002003480068A0
:10108000006880F3088862B600DF00BF08ED00E06A
:1010900080B500AF4EF62053CEF200034EF620523C
:1010A000CEF20002126842F47F021A604EF620531C
:1010B000CEF200034EF62052CEF20002126842F049
:1010C0007F421A6000F084F840F20403C2F2000389
:1010D0004FF000021A60FFF7D1FF4FF000031846EF
:1010E00080BD00BF80B400AF4EF60453CEF20003C3
:1010F0004FF080521A60BD4680BC704780B500AF8B
:1011000000F028F840F20403C2F200031B6803F168
:10111000010240F20403C2F200031A6080BD00BF66
:1011200080B500AF40F20403C2F200031B6803F174
:10113000FF3240F20403C2F200031A6040F20403DB
:10114000C2F200031B68002B03D14FF0000000F037
:101150000BF880BDEFF311804FF0BF0181F31188D0
:1011600070474FF00003184680F31188704700BFA6
:10117000EFF309800C4B1A6820E9F00F10602DE99D
:1011800008404FF0BF0080F31188FFF785FD4FF056
:10119000000080F31188BDE8084019680868B0E8CD
:1011A000F00F80F3098870475400002080B500AF2D
:1011B0004EF60453CEF200034FF080521A60FFF750
:1011C000C9FFFFF78FFC4FF00000FFF7CDFF80BD98
:1011D00080B400AF4EF21403CEF2000341F63F128A
:1011E000C0F201021A604EF21003CEF200034FF07B
:1011F00007021A60BD4680BC704700BF80B584B04E
:1012000000AF0346FB71FA7941F29053C0F6000338
:1012100053F8223018464FF00101FFF76BFAFA79C4
:1012200041F28853C0F6000333F81230BB814FF00F
:101230001003FB734FF00303BB73FA7940F208030A
:10124000C2F2000353F8222007F10C03104619469E
:10125000FFF7C8F807F11007BD4680BD80B483B022
:1012600000AF0346FB71FA7940F20803C2F20003B3
:1012700053F82220F97941F28853C0F6000333F87D
:101280001130136107F10C07BD4680BC704700BFE9
:1012900080B483B000AF0346FB71FA7940F20803D3
:1012A000C2F2000353F82220F97940F20803C2F297
:1012B000000353F82130D968F87941F28853C0F619
:1012C000000333F810304B40D36007F10C07BD46E4
:1012D00080BC704780B588B000AF78604FF00003E5
:1012E0007B61FFF745FB44F66813C2F200031B68FD
:1012F000002B08D100F0E0F844F66813C2F20003B6
:101300004FF001021A607B68002B12D041F230636B
:10131000C0F600031B887A68D3187B607B6803F0F3
:101320000703002B05D07B6823F0070303F10803B4
:101330007B607B68002B72D07A6844F2F7739A4224
:101340006DD844F65813C2F20003BB6144F658133B
:10135000C2F200031B68FB6104E0FB69BB61FB692F
:101360001B68FB61FB695A687B689A4203D2FB6980
:101370001B68002BF1D1FA6944F66013C2F2000336
:101380009A424CD0BB691A6841F23063C0F6000340
:101390001B88D3187B61FB691A68BB691A60FB69FB
:1013A0005A687B68D21A41F23063C0F600031B888A
:1013B0004FEA43039A4225D9FA697B68D318FB6048
:1013C000FB695A687B68D21AFB685A60FB697A68C5
:1013D0005A60FB685B68BB6044F65813C2F20003B6
:1013E0003B6102E03B691B683B613B691B685A68D3
:1013F000BB689A42F6D33B691A68FB681A603B697E
:10140000FA681A6040F25003C2F200031A68FB69DE
:101410005B68D21A40F25003C2F200031A60FFF771
:10142000B9FA7B69184607F12007BD4680BD00BFA9
:1014300080B586B000AF78607B683B617B68002B2D
:1014400035D041F23063C0F600031B88C3F10003BE
:101450003A69D3183B613B69FB60FFF789FAFB6887
:101460005B68BB6044F65813C2F200037B6102E084
:101470007B691B687B617B691B685A68BB689A4201
:10148000F6D37B691A68FB681A607B69FA681A6090
:10149000FB685A6840F25003C2F200031B68D2187E
:1014A00040F25003C2F200031A60FFF773FA07F12B
:1014B0001807BD4680BD00BF80B483B000AF184B95
:1014C00023F007037B6044F65813C2F200037A68E6
:1014D0001A6044F65813C2F200034FF000025A603B
:1014E00044F66013C2F2000344F2F8725A6044F604
:1014F0006013C2F200034FF000021A607B683B6089
:101500003B6844F2F8725A603A6844F66013C2F2DB
:101510000003136007F10C07BD4680BC704700BF95
:101520006001002082180346934202D003F8011B99
:10153000FAE7704730B5013903461C463AB111F855
:10154000015F013A03F8015B1C46002DF5D19918A3
:101550008C4203D0002204F8012BF9E730BD0000D3
:10156000426C696E6B00000049444C45000000006D
:101570000D0A0000257309092563092575092575DC
:101580000925750D0A0000004000800000010002DE
:10159000100000001000000010000000100000000B
:1015A00001000020000201000200000100400010C4
:1015B00004000000100000000800000040000000CF
:1015C000400000002000000020000000200000007B
:1015D0000100002000020100020000010040001094
:1015E00000000200010004000400030003000300E7
:1015F00000000D0009000000010008000E000C00B2
:101600000600280017000600070017002800280021
:101610000040000000000200040000002000000064
:101620000400000020000000000220000004400030
:021630001000A8
:10163400FFFFFFFFAAAAAAAA001001400010014060
:10164400001001400010014000080140001001405A
:10165400000C014000180140001801400014014032
:1016640000140140001401400038014000440040CF
:10167400000801400014014000080140001401402A
:04168400F847000023
:0400000508000000EF
:00000001FF
